:020000040000fa
:080000000002040000000000f2
:020000040000fa
:04000800720300007f
:020000040000fa
:04000c00720300007b
:020000040000fa
:040010007203000077
:020000040000fa
:040014007203000073
:020000040000fa
:04001800720300006f
:020000040000fa
:04001c00720300006b
:020000040000fa
:040020007203000067
:020000040000fa
:040024007203000063
:020000040000fa
:04002800720300005f
:020000040000fa
:04002c00720300005b
:020000040000fa
:040030007203000057
:020000040000fa
:04003400de020000e8
:020000040000fa
:04003800720300004f
:020000040000fa
:04003c00720300004b
:020000040000fa
:040040007203000047
:020000040000fa
:040044002a0300008b
:020000040000fa
:04004800720300003f
:020000040000fa
:04004c00720300003b
:020000040000fa
:040050007203000037
:020000040000fa
:040054007203000033
:020000040000fa
:04005800720300002f
:020000040000fa
:04005c00c8020000d6
:020000040000fa
:040060007203000027
:020000040000fa
:040064007203000023
:020000040000fa
:04006800720300001f
:020000040000fa
:04006c00720300001b
:020000040000fa
:040070007203000017
:020000040000fa
:040074007203000013
:020000040000fa
:04007800720300000f
:020000040000fa
:04007c00720300000b
:020000040000fa
:040080007203000007
:020000040000fa
:040084007203000003
:020000040000fa
:0400880072030000ff
:020000040000fa
:04008c0072030000fb
:020000040000fa
:0400900072030000f7
:020000040000fa
:0400940072030000f3
:020000040000fa
:0400980072030000ef
:020000040000fa
:04009c0072030000eb
:020000040000fa
:0400a00072030000e7
:020000040000fa
:0400a40072030000e3
:020000040000fa
:0400a80072030000df
:020000040000fa
:0400ac0072030000db
:020000040000fa
:0400b00072030000d7
:020000040000fa
:0400b40072030000d3
:020000040000fa
:0400b80072030000cf
:020000040000fa
:0400bc0072030000cb
:020000040000fa
:0400c00072030000c7
:020000040000fa
:0400c40072030000c3
:020000040000fa
:0400c80072030000bf
:020000040000fa
:0400cc0072030000bb
:020000040000fa
:0400d00072030000b7
:020000040000fa
:0400d40072030000b3
:020000040000fa
:0400d80072030000af
:020000040000fa
:0400dc0072030000ab
:020000040000fa
:0400e00072030000a7
:020000040000fa
:0400e40072030000a3
:020000040000fa
:0400e800720300009f
:020000040000fa
:0400ec00720300009b
:020000040000fa
:0400f0007203000097
:020000040000fa
:0400f4007203000093
:020000040000fa
:0400f800720300008f
:020000040000fa
:0400fc00720300008b
:020000040000fa
:040100007203000086
:020000040000fa
:040104007203000082
:020000040000fa
:04010800720300007e
:020000040000fa
:04010c00720300007a
:020000040000fa
:040110007203000076
:020000040000fa
:040114007203000072
:020000040000fa
:04011800720300006e
:020000040000fa
:04011c00720300006a
:020000040000fa
:040120007203000066
:020000040000fa
:040124007203000062
:020000040000fa
:04012800720300005e
:020000040000fa
:04012c00720300005a
:020000040000fa
:040130007203000056
:020000040000fa
:040134007203000052
:020000040000fa
:04013800720300004e
:020000040000fa
:04013c00720300004a
:020000040000fa
:040140007203000046
:020000040000fa
:040144007203000042
:020000040000fa
:04014800720300003e
:020000040000fa
:04014c00720300003a
:020000040000fa
:040150007203000036
:020000040000fa
:04020800720300007d
:020000040000fa
:04020c007203000079
:020000040000fa
:040210007203000075
:020000040000fa
:040214007203000071
:020000040000fa
:04021800720300006d
:020000040000fa
:04021c007203000069
:020000040000fa
:040220007203000065
:020000040000fa
:040224007203000061
:020000040000fa
:04022800720300005d
:020000040000fa
:04022c007203000059
:020000040000fa
:040230007203000055
:020000040000fa
:040234007203000051
:020000040000fa
:04023800720300004d
:020000040000fa
:04023c007203000049
:020000040000fa
:040240007203000045
:020000040000fa
:040244007203000041
:020000040000fa
:04024800720300003d
:020000040000fa
:04024c007203000039
:020000040000fa
:040250007203000035
:020000040000fa
:040254007203000031
:020000040000fa
:04025800720300002d
:020000040000fa
:04025c007203000029
:020000040000fa
:040260007203000025
:020000040000fa
:040264007203000021
:020000040000fa
:04026800720300001d
:020000040000fa
:04026c007203000019
:020000040000fa
:040270007203000015
:020000040000fa
:040274007203000011
:020000040000fa
:04027800720300000d
:020000040000fa
:04027c007203000009
:020000040000fa
:040280007203000005
:020000040000fa
:040284007203000001
:020000040000fa
:0402880072030000fd
:020000040000fa
:04028c0072030000f9
:020000040000fa
:0402900072030000f5
:020000040000fa
:0402940072030000f1
:020000040000fa
:0402980072030000ed
:020000040000fa
:04029c0072030000e9
:020000040000fa
:0402a00072030000e5
:020000040000fa
:0402a40072030000e1
:020000040000fa
:0402a80072030000dd
:020000040000fa
:0402ac0072030000d9
:020000040000fa
:0402b00072030000d5
:020000040000fa
:0402b40072030000d1
:020000040000fa
:0402b80072030000cd
:020000040000fa
:0402bc0072030000c9
:020000040000fa
:0402c00072030000c5
:020000040000fa
:0402c40072030000c1
:020000040000fa
:0402c80072030000bd
:020000040000fa
:0402cc0072030000b9
:020000040000fa
:0402d00072030000b5
:020000040000fa
:0402d40072030000b1
:020000040000fa
:0402d80072030000ad
:020000040000fa
:0402dc0072030000a9
:020000040000fa
:0402e00072030000a5
:020000040000fa
:0402e40072030000a1
:020000040000fa
:0402e800720300009d
:020000040000fa
:0402ec007203000099
:020000040000fa
:0402f0007203000095
:020000040000fa
:0402f4007203000091
:020000040000fa
:0402f800720300008d
:020000040000fa
:0402fc007203000089
:020000040000fa
:040300007203000084
:020000040000fa
:040304007203000080
:020000040000fa
:04030800720300007c
:020000040000fa
:04030c007203000078
:020000040000fa
:040310007203000074
:020000040000fa
:040314007203000070
:020000040000fa
:04031800720300006c
:020000040000fa
:04031c007203000068
:020000040000fa
:040320007203000064
:020000040000fa
:040324007203000060
:020000040000fa
:04032800720300005c
:020000040000fa
:04032c007203000058
:020000040000fa
:040330007203000054
:020000040000fa
:040334007203000050
:020000040000fa
:04033800720300004c
:020000040000fa
:04033c007203000048
:020000040000fa
:040340007203000044
:020000040000fa
:040344007203000040
:020000040000fa
:04034800720300003c
:020000040000fa
:04034c007203000038
:020000040000fa
:040350007203000034
:020000040000fa
:100400004f8020000ebf20000e0188000000000079
:10041000000020000000e000020032000001200087
:100420002002880014000700b00007000000e00070
:1004300003003a00c05b20000100200002003700ea
:100440000000200001002000810f70000100320038
:1004500014000700000020000000e000020032004d
:100460000000020000000000b605020000000000cd
:100470000040da000000fe004440a9000000200017
:100480000000e0000300320000002000a00188000e
:100490004440a800000006008a1f78008b1f7800e7
:1004a0000000060091018800800478000000eb0045
:1004b0001a003700e284440032a0b4009905ba0063
:1004c000e284440032a0b4009906ba00e2844400f9
:1004d00032a0b4000006eb00476fde00fd07b2005b
:1004e000636ce10003003a00ebff07000000eb0043
:1004f0000a003700606ce10004003a00005deb0088
:100500008b05e900fdff3e00040037006168e10053
:10051000010032000086eb000b00070019c7ba008b
:100520001905ba000e04e00003003a000a00e000da
:10053000e0ff3a0000000600fe07b2009e018800be
:100540008a047800f5ff3700395dba008b05e900b1
:100550000c003200295dba008b05e900080032006a
:100560000c00e00003003a00e284440032a0b40032
:10057000f5ff370019ddba008b05e900faff3a00f4
:100580008904e800e184440032a0b40000000600c1
:10059000811f78000200fa0085a0a9002043a9006d
:1005a00001188000010f78009e007800b10e8800cd
:1005b0000080fa00cf007800004006003600f80006
:1005c000809fbe00829fbe00849fbe00869fbe00ab
:1005d0003400f80000002000a00188000000fa00ac
:1005e0008460a900104080000000e80067006000ff
:1005f00010408800104080000000e000030032003e
:10060000e10f5000070032000a00370011c0b300ac
:10061000d0c0b3009f000700100107002043a800ce
:10062000040037008040eb00d0c0b3009900070001
:10063000000000000080fa003400f9004f03be0003
:100640004f02be004f01be004f00be003600f90051
:10065000004006003600f800809fbe00829fbe006a
:10066000849fbe00869fbe003400f800000020007a
:10067000a00188000000fa0084e0a900004080008a
:100680000000e80067006000004088000040800033
:100690000000e00003003200e10f500005003200ce
:1006a0000800370011c0b300f0c0b30079000700a4
:1006b000040037008040eb00f0c0b3007500070075
:1006c000000000000080fa003400f9004f03be0073
:1006d0004f02be004f01be004f00be003600f900c1
:1006e000004006000040da000000fe0000000500a7
:1006f0000001be00190007000470a70003f0a1006c
:1007000003f8a30013003a006509b100100032009d
:10071000090035006928e1000200350001002800c9
:100720000000050000004000818048008502e900cb
:10073000fcff3a0000000600f88f4200050035007b
:100740008100d1000080d3008502e800fcff3a0060
:10075000000006008000eb0000000500c70ade0074
:10076000f107b200f50fb20008003200e1cf4200fd
:10077000020032000170a00024000500810f70000b
:10078000010032000408050044000500810f7000dc
:1007900002003a00140005008502e9000000400054
:1007a00081c04800fcff3b000170a0002400050050
:020000040000fa
:1007b0000200fa00000f78001e007800e20f5000df
:1007c00011003200e20f500011003c00e10f500018
:1007d00011003a00c1e1a900010e800030ff2f0096
:1007e000008060000020a000000e8800401f200054
:1007f000200e8800c901a900c881a800c801a8006e
:10080000c1e1a80005003700000000000300370028
:100810000000000001003700000000000080fa0026
:10082000000006000600fa00000f7800120798008a
:10083000230798001e007800e10f500007003a00df
:100840001e009000ae009000a9ff07000000780095
:100850000000ea00b00e8800000000000080fa00ee
:10086000000006000200fa00004f78001e80fb0026
:10087000110020000008dd000080ea008000780000
:100880004016800000806000401688000080fa005a
:10089000000006000200fa00004f7800114798009f
:1008a0001e4090000004e000080032001e80fb00a3
:1008b000110020000008dd00800078005016800044
:1008c0000100700050168800080037001e80fb00f1
:1008d000110020000008dd000080ea0080007800a0
:1008e0005016800000806000501688000080fa00da
:1008f000000006000200fa00004f78001e80fb0096
:10090000110020000008dd00800078004016800003
:1009100001007000401688000080fa000000060008
:100920000200fa00004f78001e80fb00110020003a
:100930000008dd0080007800601680008080600084
:100940001e80fb000008de000080fa0000000600a8
:100950000600fa00000f780011079800220798009f
:100960001e007800e10f500003003200e20f50003b
:100970001c0032003700370005e1a9000021ef001c
:100980002e00900000407800634060000080fb0073
:10099000630060004400dd0022088000f1fc2f00ad
:1009a0008100610001007000200888009e00900016
:1009b000110888000421a90005a1a80004c1a9000c
:1009c0008460a90021058000f0ff280000806000fd
:1009d00000e0a000200588009460a80005e1a800c0
:1009e0001c00370011e1a9000621ef002e00900045
:1009f00000407800634060000080fb0063006000fe
:100a00004400dd0082088000f1fc2f0081006100bd
:100a100001007000800888009e0090006108880036
:100a20001021a90011a1a80010c1a90084e0a9000b
:100a300031058000f0ff2800808060000000230066
:100a4000010070003005880094e0a80011e1a800c2
:100a5000000000000080fa00000006000000fa001c
:100a600021e3a9000080eb00601988002c03a90095
:100a70002c23a90030002000801988002343a800ff
:100a80004119800000fe2f0000806000401988009e
:100a90002063a90011198000f0cf2f0000806000b2
:100aa000101988001119800030fc2f0000806000b0
:100ab0000020a000101988002203a9002223a90009
:100ac00011198000f0ff21000080600010198800db
:100ad00001198000f0cf2f0000806000001988000d
:100ae00025e3a900f0c3b30024e3b7002119800077
:100af00000f0210001007000201988000119800019
:100b0000000e200001007000001988002023a800ba
:100b10002043a90085a0a90051058000f0f82f000e
:100b200080806000000520000100700050058800f2
:100b300095a0a80021e3a8000080fa0000000600ac
:100b40000000fa00d0c0b30046ff070010002000ec
:100b500017ff070022002000f11f200010002000d6
:100b60007bff07000080fa00000006000000fa008a
:080b7000f3ff0700ffff37004f
:020000040000fa
:100b78000008000004000000000000000000000061
:020000040000fa
:0200000401f009
:04000000ffff0000fe
:020000040000fa
:0200000401f009
:04000800ffff0000f6
:020000040000fa
:0200000401f009
:04000c00820000006e
:020000040000fa
:0200000401f009
:04001000a500000047
:020000040000fa
:0200000401f009
:04001400df00000009
:020000040000fa
:0200000401f009
:04001800f7000000ed
:020000040000fa
:0200000401f009
:04001c00dfff000002
:00000001FF
